{
  "contractName": "Box",
  "abi": [
    {
      "constant": true,
      "inputs": [],
      "name": "x",
      "outputs": [
        {
          "internalType": "uint256",
          "name": "",
          "type": "uint256"
        }
      ],
      "payable": false,
      "stateMutability": "view",
      "type": "function"
    },
    {
      "constant": false,
      "inputs": [
        {
          "internalType": "uint256",
          "name": "_nb",
          "type": "uint256"
        }
      ],
      "name": "setvalue",
      "outputs": [],
      "payable": false,
      "stateMutability": "nonpayable",
      "type": "function"
    },
    {
      "constant": true,
      "inputs": [],
      "name": "getValue",
      "outputs": [
        {
          "internalType": "uint256",
          "name": "",
          "type": "uint256"
        }
      ],
      "payable": false,
      "stateMutability": "view",
      "type": "function"
    }
  ],
  "bytecode": "0x608060405234801561001057600080fd5b5060f28061001f6000396000f3fe6080604052348015600f57600080fd5b5060043610603c5760003560e01c80630b4745ec1460415780630c55699c14606c57806320965255146088575b600080fd5b606a60048036036020811015605557600080fd5b810190808035906020019092919050505060a4565b005b607260ae565b6040518082815260200191505060405180910390f35b608e60b4565b6040518082815260200191505060405180910390f35b8060008190555050565b60005481565b6000805490509056fea265627a7a72315820773fdd6c5e1ab6c634e53c998dc54224b916e3dea116f5e27ec49b8cdc4e073c64736f6c63430005100032",
  "source": "// SPDX-License-Identifier: MIT\npragma solidity >=0.4.22 <0.9.0;\n\ncontract Box {\n  uint public x;\n\n  function setvalue(uint _nb) public{\n      x=_nb;\n\n  }\n\n  function getValue() public view returns(uint){\n\n    return x;\n  }\n\n\n  }\n",
  "sourcePath": "C:\\Users\\Developer\\Desktop\\Mohsin\\IEC Contracs\\Web3sendingTx\\contracts\\Box.sol",
  "compiler": {
    "name": "solc",
    "version": "0.5.16+commit.9c3226ce.Emscripten.clang"
  },
  "schemaVersion": "3.4.8",
  "updatedAt": "2022-08-05T14:43:37.897Z",
  "devdoc": {
    "methods": {}
  },
  "userdoc": {
    "methods": {}
  }
}